:400000000010002011000000A90E0000A90E000080B500AF00F07CFF80B500AF154B154A12688021C9020A431A60182001F0CAFC104B104A126810490A401A600F4B104A83
:400040001A60104B20221A600F4B10221A600F4B802212061A60074B00221A600C4B0D4A1A600D4B0D4A1A600D4B00221A60C046BD4680BD00010B40FFFFFBFF04010B404E
:4000800006000080080202400C02024008010B40000002400E00008040000240670000800C020B4080B582B000AF72B6FB1D00221A7022E0FB1D1A7813005B009B185B000E
:4000C0002B4A9B183B603B681A78597809020A43997809040A43DB781B06134318003B681A795B791B0213439BB2190000F0C6FEFB1D1A78FB1D01321A70FB1D1B78012BA5
:40010000D8D91C4BEE2212041A601B4BEE2212021A601A4B99221A60194B992212041A60184B992212041A60174A174B1B78DBB206210B43DBB21370144B30221A60144B1A
:40014000902292021A60134BD82212011A60124B02221A60114B31221A60114B02221A60FFF75AFF00F09AFEC046BD4602B080BD806F0000000001400C000140100001401F
:4001800000500F4030500F4000700F4000000440080004400803044000040440080404401804044010B5064C2378002B07D1054B002B02D0044800E000BF0123237010BDCA
:4001C0008001002000000000C06D0000084B10B5002B03D00749084800E000BF07480368002B00D110BD064B002BFBD09847F9E70000000084010020C06D0000C800002099
:4002000000000000F0B5474680B4B0B00AAFFA23BB6700239422BA18136000F011FF01F0DBFA144B180001F06DFB62B600F0D0FA114B180001F066FB00F0D4FA0F4B180084
:4002400001F060FB0E4B180001F05CFB00F0DCFA031E01D00B4B00E00B4B180001F052FB0A4B180001F04EFB00239422BA18136003E1C046C86D0000DC6D0000F06D000055
:40028000046E0000206E0000406E0000606E000056232022BA18D41800F0EEFA0300238054232022BA18D41800F012FB0300238052232022BA18D41800F036FB0300238075
:4002C00050232022BA18D41800F05AFB030023804E232022BA18D41800F07EFB030023804C232022BA18D41800F0A2FB03002380562320229446BC44634400229B5E18000F
:4003000002F056FC031C191C9023FB18186802F017F8031C9022BA181360542320229446BC44634400229B5E180002F041FC031C191C8C23FB18186802F002F8031C8C22DD
:40034000BA181360522320229446BC44634400229B5E180002F02CFC031C191C8823FB18186801F0EDFF031C8822BA181360502320229446BC44634400229B5E180002F0DB
:4003800017FC031C191C8423FB18186801F0D8FF031C8422BA1813604E2320229446BC44634400229B5E180002F002FC031C191C8023FB18186801F0C3FF031C8022BA18A3
:4003C00013604C2320229446BC44634400229B5E180002F0EDFB031C191CF86F01F0B0FF031CFB67562320229446BC44634400269E5F542320229446BC44634400229B5EBB
:400400009C46522320229046B844434400229B5E502220218846B84442440021525E4E2120208046B84441440020095E4C202024A046B84440440024005FDC4D20243C1903
:400440000390029101920093634632002900200003F0BEFC2023FB18180001F053FAD44B180001F04FFA052001F054FC9423FB181B6801339422BA1813609423FB181B6813
:40048000632B00DC04E7CB499023FB18186802F0CDF8031C9022BA181360C6498C23FB18186802F0C3F8031C8C22BA181360C1498823FB18186802F0B9F8031C8822BA182A
:4004C0001360BC498423FB18186802F0AFF8031C8422BA181360B7498023FB18186802F0A5F8031C8022BA181360B249F86F02F09DF8031CFB67B04B180001F003FA9023BE
:40050000FB18186802F032FBB8618C23FB18186802F02CFB38618823FB18186802F026FB04008423FB18186802F020FB05008023FB18186802F01AFB0600F86F02F016FBAE
:4005400003009E492022B81803930296019500943B69BA6903F03CFC2023FB18180001F0D1F9974B180001F0CDF956232022BA18D41800F081F90300238054232022BA1847
:40058000D41800F0A5F90300238052232022BA18D41800F0C9F90300238050232022BA18D41800F0EDF9030023804E232022BA18D41800F011FA030023804C232022BA18CA
:4005C000D41800F035FA03002380562320229446BC44634400229B5E180002F0E9FA031C9022BA181168181C02F03AF9031C8D21C905181C02F01AF8031CBB6654232022C5
:400600009446BC44634400229B5E180002F0D0FA031C8C22BA181168181C02F021F9031C8D21C905181C02F001F8031C7B66522320229446BC44634400229B5E180002F0DB
:40064000B7FA041C8D21C9058823FB18186802F007F9031C191C201C02F002F9031C8D21C905181C01F0E2FF031C3B66502320229446BC44634400229B5E180002F098FA32
:40068000031C8422BA181168181C02F0E9F8031C181C02F0EBFD4B4A4B4B02F0D1FA03000C001800210002F035FE031CFB654E2320229446BC44634400229B5E180002F0C9
:4006C00077FA031C8022BA181168181C02F0C8F8031C181C02F0CAFD3A4A3B4B02F0B0FA03000C001800210002F014FE031CBB654C2320229446BC44634400229B5E1800F5
:4007000002F056FA031CF96F181C02F0A9F8031C181C02F0ABFD2B4A2B4B02F091FA03000C001800210002F0F5FD031C7B65B86E02F09CFDB861F961786E02F097FD050014
:400740000E00386E02F092FD38617961F86D02F08DFDB860F960B86D02F088FD38607960786D02F083FD03000C0018492022B818089309943B687C6806930794BB68FC681F
:40078000049305943B697C690293039400950196BA69FB6903F01CFB2023FB18180001F0B1F80F2001F0B6FADFE6C046806E0000B86E00000000C842BC6E0000F06E00004E
:4007C0002C6F00000AD7A3703D6260404C6F000080B500AF024B69221A70C046BD4680BDC601002080B500AF012000F061F9002000F016F8002000F029F8002000F044F912
:40080000C046BD4680BDC04680B500AF00F066F90300343B5A425341DBB21800BD4680BD80B584B002AF0200FB1D1A70064B1878FB1D1B780093022304221B2100F064FA00
:40084000C046BD4602B080BDC601002080B584B002AF0200FB1D1A70064B1878FB1D1B780093022304221C2100F04EFAC046BD4602B080BDC601002080B582B000AF124BAA
:400880001B78124A3B21180000F088F90F4B1A78FB1D1A700C4B1B780C4A3C21180000F07DF90A4B1A78BB1D1A70FB1D1B785BB21B021AB2BB1D1B785BB21BB213431BB269
:4008C0001800BD4602B080BDC6010020B001002080B582B000AF124B1B78124A3D21180000F05CF90F4B1A78FB1D1A700C4B1B780C4A3E21180000F051F90A4B1A78BB1DDB
:400900001A70FB1D1B785BB21B021AB2BB1D1B785BB21BB213431BB21800BD4602B080BDC6010020B001002080B582B000AF124B1B78124A3F21180000F030F90F4B1A7883
:40094000FB1D1A700C4B1B780C4A4021180000F025F90A4B1A78BB1D1A70FB1D1B785BB21B021AB2BB1D1B785BB21BB213431BB21800BD4602B080BDC6010020B0010020FA
:4009800080B582B000AF124B1B78124A4321180000F004F90F4B1A78FB1D1A700C4B1B780C4A4421180000F0F9F80A4B1A78BB1D1A70FB1D1B785BB21B021AB2BB1D1B78EB
:4009C0005BB21BB213431BB21800BD4602B080BDC6010020B001002080B582B000AF124B1B78124A4521180000F0D8F80F4B1A78FB1D1A700C4B1B780C4A4621180000F05B
:400A0000CDF80A4B1A78BB1D1A70FB1D1B785BB21B021AB2BB1D1B785BB21BB213431BB21800BD4602B080BDC6010020B001002080B582B000AF124B1B78124A47211800FB
:400A400000F0ACF80F4B1A78FB1D1A700C4B1B780C4A4821180000F0A1F80A4B1A78BB1D1A70FB1D1B785BB21B021AB2BB1D1B785BB21BB213431BB21800BD4602B080BDAE
:400A8000C6010020B001002080B582B000AF0200FB1D1A70054B1878FB1D1B7806226B2100F09EF9C046BD4602B080BDC601002080B584B002AF0200FB1D1A70064B187880
:400AC000FB1D1B780093032302226B2100F01CF9C046BD4602B080BDC601002080B582B002AF074B1878074B009306230622752100F06CF8034B1B781800BD4680BDC046A5
:400B0000C6010020B001002090B585B000AF0400080011003B60FB1D221C1A70BB1D021C1A707B1D0A1C1A700F23FB1800221A70FB1D1B7800220021180000F069FBBB1D51
:400B40001B780021180000F06FFCFB1D1B7800220121180000F0D6FB05E03B6800221900002000F09BFC0F23FB181B780F22BA18591C11701A007B1D1B78013B9A42ECDB27
:400B80003B6800221900012000F088FC002000F009FCC046BD4605B090BDC04680B582B000AF3A60FB1D021C1A70BB1D0A1C1A703A68BB1D1978FB1D187813000122FFF7C5
:400BC000A3FFC046BD4602B080BDC046B0B584B000AF05000C0010001900FB1D2A1C1A70BB1D221C1A707B1D021C1A703B1D0A1C1A703B1D1B7801229A4013005A1E7B1DF8
:400C000019783B1D1B78CB1A01339A400F23FB181A703A6ABB1D1978FB1D1B781800FFF7BDFF3B6A1B780F22BA1812781340DAB23B6A1A703B6A1B7819007B1D1A783B1D4E
:400C40001B78D31A013319410B00DAB23B6A1A70C046BD4604B0B0BD90B585B000AF0400080011003B60FB1D221C1A70BB1D021C1A707B1D0A1C1A700F23FB1800221A70FC
:400C8000FB1D1B7800220021180000F0C1FABB1D1B780021180000F0C7FB07E03B685A1C3A601B780021180000F0BEFB0F23FB181B780F22BA18591C11707A1D12789A4250
:400CC000ECD8002000F06EFBC046BD4605B090BD90B583B000AF040008001100FB1D221C1A70BB1D021C1A707B1D0A1C1A707A1DBB1D1978FB1D187813000122FFF7ACFF41
:400D0000C046BD4603B090BDB0B584B000AF05000C0010001900FB1D2A1C1A70BB1D221C1A707B1D021C1A703B1D0A1C1A703B1D1B7801229A4013005A1E7B1D19783B1D64
:400D40001B78CB1A01339A400F23FB181A700E23FA18BB1D1978FB1D1B781800FFF71EFF2023FB181A787B1D19783B1D1B78CB1A01339A402023FB181A702023F918202336
:400D8000FB180F22BA181B78127813400B700F23FB181B785BB2DB435BB20E22BA18127852B213405BB2DAB20E23FB181A700E23FB181A782023FB181B781343DAB20E2306
:400DC000FB181A700E23FB181A78BB1D1978FB1D1B781800FFF77CFFC046BD4604B0B0BDB0B584B000AF05000C0010001900FB1D2A1C1A70BB1D221C1A707B1D021C1A706F
:400E00003B1D0A1C1A700F23FA18BB1D1978FB1D1B781800FFF7C2FE3B1D1B78002B0DD07B1D1B7801229A4013005AB20F23FB181B785BB213435BB2DBB20EE07B1D1B785C
:400E400001229A4013005BB2DB435BB20F22BA18127852B213405BB2DBB20F22BA1813700F23FB181A78BB1D1978FB1D1B781800FFF72EFFC046BD4604B0B0BD80B582B06F
:400E800000AF786039603A687B680021180002F020FBC046BD4602B080BDC04680B500AFC046BD4680BDC04680B500AF02F0DCFA03001B680C2B00D1FEE7FEE780B584B0AC
:400EC00000AF7860104B1A687B68D3181A000F4BD21A80239B009A4209DC0B4B1B68FB60094B1A687B68D218074B1A6007E002F0BBFA03000C221A6001235B42FB60FB6806
:400F00001800BD4604B080BDCC000020F001002080B586B000AF224B7B61224B3B61204B7B6135E03B691B68FB603B695B68BB603B699B683B6000237B600CE0FB681A68CB
:400F4000BB681A60BB680433BB60FB680433FB607B6804337B607A683B689A42EED13B69DB683B6000237B6008E0BB6800221A60BB680433BB607B6804337B607A683B683F
:400F80009A42F2D13B6910333B617B69013B7B617B69002BC6D102F06DFAFFF733F9FEE7010000004072000080B582B000AF00237B600FE07B68032B04D8104B7A6892009B
:400FC000D35800E00E4B0F4A796889008B507B6801337B607B682F2BECD9FFF763F80A4B00221A608023DB058022D205126801210A431A60C046BD4602B080BD0000000062
:40100000A90E000000000020C000002080B500AF00F036F8C046BD4680BDC04680B500AF064B064A1268802109060A431A6000F019F800F01FF8C046BD4680BD00000740A0
:4010400080B500AF064B1B78002B04D1FFF7DEFF034B01221A70FFF7E1FFC046BD4680BD9C01002080B500AF0B2000F01BFEC046BD4680BD80B500AFC046BD4680BDC04673
:4010800080B500AF234B234A12680C210A431A60214B00221A60214B214A1A60214B224A1A60224B00221A60214B00221A60214B1D4A1A60204B00221A600B2000F008FED2
:4010C00003210B2000F09AFD1C4B19000B2000F06FFD1B4B00221A601A4B00221A601A4B00221A60194B00221A60194B00221A60184B00221A60184B10221A70174B00226D
:401100001A80174B00221A60164B00221A60C046BD4680BD70000740000007406000074077080080000307400701008004030740100307400002074004020740AD1D000056
:40114000C80E0740880E0740480F0740080F0740C80F0740880F0740C7010020E4010020CC010020D801002080B500AF184B184A1268520052081A60164B00221A60164B03
:4011800000221A60154B154A126815490A401A60144B00221A60144B00221A60134B144A1A60144B144A1A60144B154A1A60154B154A1A60154B10221A70054B044A126830
:4011C000802109060A431A60C046BD4680BDC04600000740680007406C00074060000740FF5CFFFF880F0740C80F0740800F0740F3070000C00F0740ED0F0000400F07400F
:40120000FF0F0000000F074017030000C701002080B588B000AFF860B9607A600423FB612E4B1B78DBB2102B53D10B2000F050FD2B4B1B680122134002D00823FB6145E011
:401240007B68FA22920053437B61264B00221A60254B264A1A60264B264A1A60FB685B00FF221340FB60BB68002B03D11B4B24221A7006E0194B25221A70FB6801221343CD
:40128000FB601D4BFA681A601C4B02221A60164B1A680823FF331340BB61194B1B68C0221340BA691343BB611423FB18180000F053FA0200BB691343BB61BB69002BE6D0EE
:4012C000BB69180000F0C6F90300FB610B2000F0E9FCFB691800BD4608B080BDC701002064000740080F0740000F074017030000C00F0740ED0F0000400207406800074085
:40130000400F074080B588B000AFF860B9607A600423FB61204B1B78DBB220221340DBB2002B34D07B68FA22920053437B61FB685B00FF221340FB60BB68002B03D1164B3E
:4013400024221A7006E0144B25221A70FB6801221343FB6000F0FCF8104BFA681A60104B1A680823FF331340BB611423FB18180000F0F2F90200BB691343BB61BB69002B68
:40138000EDD0BB69180000F065F90300FB61FB691800BD4608B080BDC701002040020740000F074080B586B000AF786004237B61194B1B78DBB220221340DBB2002B26D090
:4013C0007B68FA2292005343FB60144B144A126820210A4001D0182200E010221A60114B1A681223FF3313403B610C23FB18180000F0B2F902003B6913433B613B69002B82
:40140000EDD03B69180000F025F903007B617B691800BD4606B080BDC70100206800074064000740000F074080B586B000AF7860396004237B61164B1B78DBB22022134018
:40144000DBB2002B1FD03B68FA2292005343FB60104B7A681A60104B1A680823FF3313403B610C23FB18180000F076F902003B6913433B613B69002BEDD03B69180000F01A
:40148000E9F803007B617B691800BD4606B080BDC701002040020740000F074080B588B000AFF860B9607A600423FB61224B1B78DBB220221340DBB2002B38D07B68FA22E8
:4014C000920053433B611D4B1A680223FF331340BB611B4B1B68042213407B611023FB18180000F039F90200BB691343BB61BB69002B02D17B69002BE5D07B69002B07D056
:40150000104B1B68DAB2BB681A700D4B0E4A1A60BB69180000F09EF80300FB61FB69002B05D1FB68002B02D1084B04221A60FB691800BD4608B080BDC7010020000F0740DE
:40154000C00F074040030740ED0F00006800074080B584B000AF0A23FB1801221A80374BFB60374B1B68202213407B6008E00A23FB181B88180000F0F3FBFB68013BFB60FE
:4015800000F0DCF9031E02D1FB68002BEFD1FB68002B4FD0294BFB60002000F0DDF9294B284A126828490A401A60284B274A1268520052081A607B68002B1CD0002000F09F
:4015C000CBF90A2000F0CCFB012000F0C5F90A2000F0C6FB08E00A23FB181B88180000F0BFFBFB68013BFB6000F0DEF9031E02D1FB68002BEFD1FB68002B08D0002000F096
:40160000ABF90A2000F0ACFB114B01221A600F4B0E4A1268802109060A431A60094B094A126809490A40E02109030A431A60012000F092F9C046BD4604B080BD204E000014
:401640006400074000000140FFFFF0FF000007406800074080B584B000AF78600023BB607B68002B05DA80231B06FB600123BB605AE07B68C022134008D01023FB60314BEE
:4016800000221A60304B10221A704DE07B680122134018D00123FB602B4B1B78DBB208221340DBB2002B0BD0284B1A688023DB05134001D10123BB60234B10221A7033E0AB
:4016C0000123BB6030E07A6880235B00134005D080235B00FB600123BB6025E07B680222134002D00223FB601EE00023FB607B681022134003D0144B10221A7014E0124B27
:401700001B78DBB208221340DBB2002B0CD00E4B1B78DBB201221340DBB2002B01D0252200E02422084B1A70BB68012B02D1FFF71BFD02E0064B074A1A60FB681800BD460A
:4017400004B080BD68000740C701002060000740000F07401703000080B584B000AF78600A23FB1801221A800023FB607B681B68002B11D00A23FB181B88180000F0F0FA18
:401780007B681B685A1E7B681A607B681B68002B02D180231B06FB60FB681800BD4604B080BDC04680B500AF00F036F8C046BD4680BDC04680B500AF064B064A1268802108
:4017C00009060A431A6000F019F800F01DF8C046BD4680BD0000064080B500AF064B1B78002B04D1FFF7DEFF034B01221A70FFF7E1FFC046BD4680BDA401002080B500AF26
:40180000C046BD4680BDC04680B500AF00F062F8C046BD4680BDC04680B500AF1A4B1B4A1A601B4B00221A601A4B1B4A1A601B4B1B4A1A601B4B07221A601B4B00221A6024
:401840001A4B01221A601A4B154A1A60194B00221A60194B00221A60184B00221A60184B00221A60174B00221A60174B00221A60164B00221A60154B1B689AB2144B1A8009
:40188000C046BD4680BDC046000006400B000002400006404800064001000A0000030640070000800403064010030640440006400002064004020640880E0640C80E0640DE
:4018C000480F0640080F0640C80F0640880F0640A601002080B500AF074B074A1268F0218A4390210A431A60044B054A12881A60C046BD4680BDC04610000140880F0640AA
:40190000A601002080B584B000AF78600023FB6009E07A68FB68D3181B78180000F06EFCFB680133FB607A68FB68D3181B78002BEFD1C046BD4604B080BDC04680B500AFD0
:40194000044B1B68202213405B09DBB21800BD4680BDC0460400044080B584B000AF0200FB1D1A700F4B1B68DAB20F23FB1810218A431A70FB1D1B781B01DBB2102213409E
:40198000D9B20F23FB180F22BA1812780A431A70044B0F22BA1812781A60C046BD4604B080BDC0460000044080B500AF044B1B68102213401B09DBB21800BD4680BDC0460F
:4019C0000400044090B585B000AF78600C23FC1800F0E4F9030023707B68022B00D8B3E07B68302B00D9AFE05E4B1B78DBB21A007B689A420AD35C4A0F23FB1812781A7059
:401A00005A4A0E23FB1812781A703FE0584B1B78DBB21A007B689A420AD3564A0F23FB1812781A70544A0E23FB1812781A702DE0524B1B78DBB21A007B689A420AD3504A09
:401A40000F23FB1812781A704E4A0E23FB1812781A701BE04C4B1B78DBB21A007B689A420AD34A4A0F23FB1812781A70484A0E23FB1812781A7009E0464A0F23FB18127896
:401A80001A70454A0E23FB1812781A707B68DA1E0B23FB1841498A5C1A700B23FB181B782F2B0DD97B682A2B0AD93D4B19221A60052000F069F90D23FB1819221A7007E0CD
:401AC000374B1B68DAB20D23FB183F210A401A700B23FA180D23FB1812781B789A4208D22F4B7A68033A2D498A5C1A60052000F04BF97B68284A9A180A23FB1812781A7065
:401B0000284B0A22BA1812781A60274B0F22BA1812781A60254B0E22BA1812781A60052000F01EF90B23FA180D23FB1812781B789A420CD91A4B7A68033A18498A5C1A606F
:401B4000052000F021F902E0002000F0D7F80C23FB181B78180000F025F9C046BD4605B090BDC046C0F1FF0FC1F1FF0FC2F1FF0FC3F1FF0FC4F1FF0FC5F1FF0FC6F1FF0F1B
:401B8000C7F1FF0FC8F1FF0FC9F1FF0FCAF1FF0FCBF1FF0FCCF1FF0FCDF1FF0F8C6F00002CFF0B4028FF0B401CFF0B4020FF0B4080B584B000AF02003960FB1D1A708023FB
:401BC0009B05FB60FB1D1B781F2B02D9002000F095F8FB1D1B7810339B00FA68D3181B68BB60FB1D1B7810339B00FA68D3183A681A60BB681800BD4604B080BD90B587B06C
:401C000000AF0200FB1D1A70BB1D0A1C1A70BB1D1B78032B02D9002000F070F8FB1D1B781F2B02D9002000F069F8FB1D1B7803221340DB0006337B611323FC1800F0AEF8A9
:401C400003002370FB1D1B789B08DBB29B00144A944663441B68FB6003227B699A401300DA43FB681340FB60BB1D1A787B699A401300FA681343FB60FB1D1B789B08DBB24E
:401C80009B00074A94466344FA681A601323FB181B78180000F086F8C046BD4607B090BD00E400E080B582B000AF0200FB1D1A70064BFA1D12781F210A40012191400A0075
:401CC0001A60C046BD4602B080BDC04600E100E080B582B000AF0200FB1D1A70064BFA1D12781F210A40012191400A001A60C046BD4602B080BDC04680E100E080B582B058
:401D000000AF0200FB1D1A7001BEC046BD4602B080BDC04680B582B000AF786009E00D4B1B68180000F030F87B680B4A944663447B607A6880231B029A42F0D8074B1B6802
:401D40007A685343180000F01FF8C046BD4602B080BDC046DC0000200080FFFFD400002080B582B000AF0200BB1D1A80BB1D1B88044A12785343180000F006F8C046BD46DE
:401D800002B080BDD80000200230800804D0C0460138FDD1C046C046C0467047EFF3108072B6704780F310887047C04680B582B000AF00233B60BE4B1B68002B02D0BC4B5B
:401DC0001B689847BB4B1B680122134002D0BA4B00221A60B94B1B78DBB220221340DBB2002B38D0B64B1A6880235B0013400AD0B44B1B889BB2C022920013439AB2B14BE7
:401E00001A8001233B60AE4B1B68012213400AD0AC4B1B889BB29022920013439AB2A94B1A8001233B603B68002B14D0A34B1B78DBB201221340DBB2002B01D0012300E0A0
:401E40000223A04A128892B213439AB29D4B1A809A4B00221A70994B1B78DBB220221340DBB2002B00D1A2E1954B1B681022134018D0954B10221A60904B1B78DBB20122A1
:401E80001340DBB2002B01D0012300E002238D4A128892B213439AB28A4B1A80874B10221A708EE1854B1B78DBB208221340DBB2002B29D0824B1B68022213400ED0824BCA
:401EC00002221A607F4B1B889BB28822920013439AB27C4B1A8001233B6015E0774B1B78DBB201221340DBB2002B03D0734B25221A7009E0714B24221A70744B1B68002B43
:401F000002D0734B10221A606C4B1B78DBB204221340DBB2002B00D111E1684B1B78DBB201221340DBB2002B5BD06A4B1B680822134033D0684B1A68684B1B680F211940C2
:401F4000674B1B68CB18D31A7B607B68082B02D908237B601EE07B68002B1BD1614B614A126861490A401A6008237B6001233B6010E05E4B1A685A4B1B68D2185C4B1B6837
:401F8000DBB21370564B1B685A1C554B1A607B68013B7B607B68002BEBD11EE04D4B1B680422134019D0514B1A684D4B1B68D2184F4B1B68DBB21370494B1B685A1C484BAE
:401FC0001A60474B1A68444B1B689A4203D2494B04221A6001E001233B60474B474A1A60ADE0374B1B680222134032D0364B02221A60434B1B680F221A40414B19688023A9
:402000001B020B4001D0012300E00023D2183D4B1B689A1A3B4B1A603A4B1A683A4B1A60284B1B889BB28422920013439AB2254B1A80364B354A1268802149020A431A601D
:40204000324B324A126832490A401A6001233B6075E0304B1B681022134065D013E0294B1A681A4B1B689A4214D22B4A2B4B1968244B1B68CB181B78DBB21360214B1B688C
:402080005A1C204B1A601E4B1B680F221340082BE5D100E0C0461B4B1A680C4B1B689A4202D10B4B40221A601D4B1E4A1A6046E0A00100208C0E0740880E0740C70100200C
:4020C0000C0F0740E4010020000F0740D0010020880F0740CC0F0740E001002008030740CC01002060000740FFFEFFFFE80100204003074068000740C00F0740ED0F0000FC
:4021000008020740C8010020D801002004020740FFFFFEFF8C0F074040020740DC010020800F0740F3070000284B1B684022134005D0274B1A68274B1A6001233B603B682A
:40214000002B3ED0244B244A126824490A401A60234B00221A60234B00221A60224B1B78DBB202221340DBB2002B15D01F4B1B78DBB201221340DBB2002B01D0092300E054
:402180000A231B4A128892B213439AB2184B1A80164B60221A7014E0164B174A126820210A4001D0182200E010221A6009E00F4B1B78DBB210221340DBB2002B01D1FEF7EA
:4021C000D3FFC046BD4602B080BDC0468C0F0740C8010020D801002060000740FFFEFFFFC80F0740880F0740D4010020C7010020E4010020680007406400074080B582B00A
:4022000000AF7860C046064B1B680F221340082BF9D0044B7A681A60C046BD4602B080BD0802064040020640002243088B4274D303098B425FD3030A8B4244D3030B8B42EA
:4022400028D3030C8B420DD3FF22090212BA030C8B4202D31212090265D0030B8B4219D300E0090AC30B8B4201D3CB03C01A5241830B8B4201D38B03C01A5241430B8B42F1
:4022800001D34B03C01A5241030B8B4201D30B03C01A5241C30A8B4201D3CB02C01A5241830A8B4201D38B02C01A5241430A8B4201D34B02C01A5241030A8B4201D30B0232
:4022C000C01A5241CDD2C3098B4201D3CB01C01A524183098B4201D38B01C01A524143098B4201D34B01C01A524103098B4201D30B01C01A5241C3088B4201D3CB00C01A29
:40230000524183088B4201D38B00C01A524143088B4201D34B00C01A5241411A00D20146524110467047FFE701B5002000F006F802BDC0460029F7D076E770477047C046FE
:40234000F8B54A02430244004E00C50F240E28009B09360EC90F92098D4259D0A01B002800DC8DE0002E1AD1002A00D079E05A0704D00F221A40042A00D004335A0138D517
:402380000134FF2C00D189E028009B015B0AE4B25B02E4055B0A2343C0071843F8BDFF2CE5D08021C9040A431B2800DD89E016002021C640081A8240511E8A4132439B1A13
:4023C0005A0114D59B019E09300001F02FF805388640844265DC041B330020200134E340041BA640721E964100243343BFE75A07BFD1DF082800FF2C2FD1002F00D187E0DC
:402400008022D20313003B435B025B0AFF24BFE7A11B002949DD002E29D0FF2CA7D08026F60432431B2900DD8DE017002026CF40711A8A40511E8A413A439B185A01D6D561
:402440000134FF2C64D0012276491A405B080B4013438CE7031ECAD100207B025B0AE4B296E701380028AAD0FF2C9DD17FE7002A00D17CE701390029DFD0FF2CD2D176E7CF
:40248000002820D1601CC0B2012853DD80279E1AFF0437402FD0D61A0D0095E72800002376E7614B241A334061E700294DD1611CCEB2012E2FDDFF292AD09B185B080C005B
:4024C00055E701227BE7002C1BD1002B5BD0C04300280CD0FF2E7ED01B2800DD92E01D002024C540201A8340581E83412B43D31A34000D0064E7002E00D065E70020002487
:40250000ABE7FF2E67D08024E40440422343E3E7FF2400233CE7002C61D1002B7ED0002A00D124E79B185A0100D460E73E4A0C0013401CE7002C1ED1002B2FD1002A66D068
:4025400013000D0013E7012277E7002C1FD1002B5AD0C94300290BD0FF2E50D01B295FDC1F002024CF40611A8B40591E8B413B439B18340062E7002B1CD1002A4AD013005B
:402580000D00FF24F3E6130034000D00EFE6FF2E35D08024E40449422343DFE7002A00D1E5E68027981AFF04074000D152E7D31A0D00DCE6FF24002A00D1D8E68020DB08E6
:4025C000C003034204D0D208024201D113000D00DB00FF24CBE61300FF240D00C7E6002B0DD0FF24002A00D1C1E68021DB08C9030B42EDD0D2080A42EAD11300E8E7130053
:40260000FF24B4E6012372E713003400AFE60027002022E780270020FF03F1E61300A6E60123A5E7FFFFFF7DFFFFFFFBF0B5564644465F464D46F0B444024600C70F83B097
:402640008846650A360EBA463DD0FF2E22D00023EC00802599469B46ED0425437F3E43465C025800DB0F640A000E984636D0FF2830D080230021E400DB041C437F38301A8C
:402680000190484642460843724E800030587A4013008746002D44D108239946063B9B46DDE70122FF2000241A406402C305640AD2071C431443200003B03CBC9046994629
:4026C000A246AB46F0BD002D20D104239946033B9B46C4E7002C17D1022102E0002C0AD10121321A01924A4643460A435A48920082587B409746200000F098FE431F76308B
:402700009C4040420021BAE70321B8E7280000F08DFE431F9D4000237630464299469B469DE70C239946093B9B4698E780240022E403FF20B9E70024C2468B465A465346EB
:40274000022AAED0032A7DD0012A31D1012200201A400024A9E70122101A1B2856DD1A4000200024A1E78023DB031D424BD18023DB032B435C02640A3A00FF2095E76D01D4
:402780006001854230D2019A0024013A01921B220127290064006D00002901DBA84201D82D1A3C43013A002AF3D16A1E95412C4301987F300028CEDD620704D00F22224094
:4027C000042A00D00434220103D5244A019814408030FE2800DD64E70122A401640AC0B21A4062E72C00A9E72D1A1A220124CFE76B02BCD500248023DB031C436402640A14
:402800004246FF2051E71C42B3D1F4E721002022C140101A8440621E94410C43620704D00F222240042A00D00434620104D5012201201A40002438E70122A401640A1A4053
:40284000002032E78023DB031C436402640A5246FF202AE7BC6F0000FC6F0000FFFFFFF7F8B54A024E0043024400240EC50F9B09360EC90F9209FF2E00D183E001204140E5
:40288000A01BA9425CD0002800DC95E0002E1CD1002A00D081E05A0704D00F221A40042A00D004335A013BD50134FF2C00D191E001209B015B0AE4B205405B02E4055B0AAD
:4028C000ED0723432B431800F8BDFF2CE3D08021C9040A431B2800DD90E016002021C640081A8240511E8A4132439B1A5A0115D59B019E09300000F099FD0538864084426E
:402900006CDC041B330020200134E340041BA640721E964100243343BDE70D005A07BCD1DF0801231D40FF2C33D1002F00D190E08022D20313003B435B025B0AFF24BCE729
:4029400000284FDD002E2ED0FF2CA4D08025ED042A431B2800DD97E016002025C640281A8240501E824132439B185A01D5D50134FF2C6DD001227B481A405B080340134302
:402980000D0088E7002A00D07AE777E7031EC5D100257B025B0AE4B28FE701380028A4D0FF2C97D177E7002A00D174E701380028DAD0FF2CCDD16EE7002821D1601CC0B2CB
:4029C000012858DD80279E1AFF0437402FD0D61A0D008FE701231D4000236EE7624B241A334058E7002851D1601CC6B2012E33DDFF282DD09B185B0804004CE7012274E72C
:402A0000002C1AD0FF2E1FD08024E404404223431B2800DD96E01D002024C540201A8340581E83412B43D31A34000D005EE7002E00D05FE700250024ABE7002B44D0C0437B
:402A40000028F0D0FF2EE3D11300FF240D0022E70D00FF24002330E7002C5DD1002B7DD0002A00D117E79B185A0100D456E73E4A040013400FE7002C1ED1002B2FD1002AA8
:402A800065D013000D0006E701226DE7002C1FD1002B59D0C04300280BD0FF2E4FD01B285EDC1D002024C540201A8340581E83412B439B18340058E7002B1CD1002A49D092
:402AC00013000D00FF24E6E6130034000D00E2E6FF2E34D08024E40440422343DFE7002A00D1D8E68027981AFF04074000D14DE7D31A0D00CFE6FF24002A00D1CBE68020C1
:402B0000DB08C003034204D0D208024201D113000D00DB00FF24BEE6002B10D0FF24002A00D1B8E68020DB08C003034203D0D208024200D11300DB000D00FF24ABE613004E
:402B4000FF24A8E601236EE713003400A3E6002700251EE780270025FF03E9E613009AE60123A6E7FFFFFF7DFFFFFFFB4302590A4300C20F1B0E00207E2B0EDD9D2B0DDC6D
:402B8000802000040143952B0BDC9620C31AD9400B005842002A00D118007047034BD018FBE7963B99400B00F3E7C046FFFFFF7F70B5002830D0C317C5185D40C40F2800A6
:402BC00000F034FC9E231B1A962B0DDC9622D21A95406A02520AD8B25202C005520AE40702432243100070BD992B19DC9922D21A9540124A2A40690704D00F210D40042D16
:402C000000D00432510103D50C4B1A409F231B1A9201520AD8B2DFE7002400200022DBE705222E00121AB921D6402A00C91A8A40551EAA4135001543DBE7C046FFFFFFFB62
:402C4000F0B556464D4644465F46F0B41D000E034C00CB0F87B0070092468146360B640D98466AD06D4B9C4235D08022430F12041343F6001E43C3009946694B00279C4601
:402C80000023644402932B0368001B0BED0F51469B46400D009500D178E0604B98426CD05B46DA004B0F802109040B4313439B465346D9005A4B9C46002360444246201A2E
:402CC0006A40924601901F430F2F00D9B0E05548BF00C0598746374300D088E0002399460233082700260293CDE74346B34649460093029B009A9246022B00D0BFE100217E
:402D000053460122002689461A40444B002136030C0D2405360B2643434C1B0526401E437600D207760816434846310007B03CBC90469946A246AB46F0BD330003434FD0D6
:402D4000002E00D1BCE1300000F070FB03000B3B1C2B00DDADE11D220100D31A08393A008F408E40DA40B9461643304B00279C46002360444442029385E753465A46134319
:402D80002CD1002300219B46023397E70B4320D05B46002B00D19EE1584600F047FB03000B3B1C2B00DD8FE102005946083A91408B461D21CB1A5146D9400B0059460B43E7
:402DC00051469B469140194B9C4660444042002374E7002300219B4601336FE703236DE70023994601330427002602934BE703230C27029347E70122D51A382D00DCB0E129
:402E000053461A4000210023002689467EE700238026994600223603004B77E7FF07000001FCFFFF3C700000FFFF0F80F30300005E4500D972E100D16DE1019B4D46013BCC
:402E400001930023340002935B461E020B0E1E430B020393330C994633041B0C494620000093FFF7E1F9009B370043430600494620009846FFF75EFA2C0C09040C43A045B4
:402E800009D9E419731EA74200D95CE1A04500D859E1023EE4194346E41A49462000FFF7C3F90300009A80465343494620009B46FFF740FA2A040904120C0A4393450DD96A
:402EC0004346D219013B974200D93AE1934500D837E102235B429C46D219E0445B46D21A4346360433439B460399180C0B0C1D00059309045B46090C0C001B041B0C44430B
:402F0000049159436B4368431B190D0CEB189C4203D980246402A44660441C0C09041B04090C20185D18824200D2DEE000D1D7E0161A029B9C465D1BAC459B415B42F61AD2
:402F4000B74200D106E149463000FFF76DF9009B04004343494630009846FFF7EBF92E0C09040E43B04509D9F619631EB74200D9F3E0B04500D8F0E0023CF6194346F31AC5
:402F8000494618000293FFF74FF9009B06004343494602989846FFF7CDF92D0409042D0C0D43A84509D9ED19731EAF4200D9D6E0A84500D8D3E0023EED1924042100434670
:402FC0003143049E059A3000ED1A0B040C0C1B0C58436643534354439A19030C9B189E4203D980225202944664441A0C00041B04000C14191B18A54250D34DD00123194321
:40300000964A019B94466344002B00DCF3E64A0709D00F220A40042A05D00A1D8A42894149428B4411005A46D20108D55A468C4B1A4093468022D2009446019B6344894A85
:40304000934200DD5BE65A46C908500708435602514601225B058146360B5B0D0A4055E680231B031E4211D05A461A420ED15E461E433603360B2A0089467B4B46E6032B6E
:4030800000D1E1E0012BBBD11A40BBE61E433603360B4246744B39E6002BB1D07D194A1EAF4252D91100A542A8D1039A9A42A5D1A6E703003E00283B9E400023994654E619
:4030C00000F0B4F9203041E603005246283B9A400021934677E6504600F0A8F920305EE6029B0026AB4200D323E7039E0299B44661448846B045B6415B467642F619B2187E
:40310000013B0291974213D290424FD800D18EE0161A9B460DE7894500D28EE674084B46F60735005B081D434B46DB0702938BE69742EDD10399029CA142E5D93E1A9B468B
:40314000F7E69846CAE61E00A5E6AC423ED874D0110053E70121494252E71C000EE71E002BE71F2D3CDC20230A0058465B1B9840EA4099400243481E81415E461143EE404E
:403180004B0709D00F230B40042B05D00B00191D99429B415B42F61833023CD55346012200211A40002601238946AFE502235B429C46039CE344A446029B63449846A0453B
:4031C000B6417642F6190293B218B1E603988A1E41008142B6417642F619AD19039161E71F225242D31A5A46DA401300202D29D040225846551BA8400143481E81410720B4
:403200000B4318400026002809D00F2200261A401900042ABBD10B0070077602360BDB0803439946012253461A4000236EE502998D42BBD89B4600267BE603989842C5D3FC
:40324000110032E70020D7E780265B4636031E433603360B009A8946034B57E5FF030000FFFFFFFEFE070000FF0700004200120E511C4302C9B270B55D0AC40F012915DDE6
:40328000E02189008C466D071B0B6244002128000D0D2D052B431C4D52052B40520813435B00E4075B082343190070BD002A15D1002D1FD0280000F0B9F80A281DDC0B23F1
:4032C0002A001B1ADA4013000200153295400F4A1B03121A52051B0B520DD7E7002D06D080221B0B120313436D07094ACEE7084A0023CBE700220023C8E703000B3B9D40F4
:403300002B000025E3E7C046FFFF0F8089030000FF0700004B0070B55E0D0C03751C640A420F6D052243C90FC4006D0D012D2ADD3B4BF318FE2B1ADC002B42DD8001451E14
:40334000A841D2001043620F0243500704D00F201040042800D004328020C004104021D00133FF2B03D09201520ADBB201E0FF2300225202520ADB0513435B00C9075B08C2
:403380000B43180070BD002E07D01443EFD08020D20080040243FF23D7E722430023002A03D00522D208FF2B03D05202520ADBB2DFE7002A32D08020C00302435202520A3A
:4033C000D7E71800173014DB8020000402431E20C01A1F280FDC2500124BF3189D406E1EB5419A402B0013432200C2401A430023ABE70023D5E702256D42EB1A1500DD4025
:40340000202809D0084BF3189A401443621E9441220000232A4398E70022F6E70022A8E780FCFFFF82FCFFFFA2FCFFFF1C2101231B04984201D3000C10391B0A984201D3BE
:40344000000A08391B09984201D30009043902A2105C40187047C04604030202010101010000000000000000014B18687047C046440100200E4B70B500251E000D4CE41AAF
:40348000A410A54204D0AB00F35898470135F8E703F0C4FE084B00251E00084CE41AA410A54204D0AB00F35898470135F8E770BD2872000028720000287200003072000020
:4034C000002310B59A4203D0CC5CC4540133F9E710BD03008218934202D019700133FAE77047F0B58BB014001D1E129906DA802424061B191D0014002D2300E000230B70C0
:403500002023149E03229E43462E07D03300453B59424B411099013ACB18109309AB049308AB0393139B00920293109B220001932B0000F0FDFC0700472E02D1119BDB0746
:403540002DD5109BFB180793462E14D13B78302B0CD1002200232000290002F02BF9002804D10123109A9B1A139A1360139B079A1B68D3180793002200232000290002F092
:4035800019F93022002802D0079B099307E0099B0799994203D9591C09911A70F7E73800099B159ADB1B13600BB0F0BDF7B52B2307000C000270861C002901DA2D234C42B7
:4035C0007B70092C1CDD6B46DD1D20000A2102F0DDF8013D3031297020000A2101F0F0FF04000928F1DC013D30342C706B4607333000AB4209D92B78013533700136F5E7D9
:403600003023E4183370B01C7470C01BFEBD0000F0B595B00C000A920B931A9D099001F04DFA036818000D9300F0F4FB0023129323680E900C930C99277E2B680722C90534
:4036400001D59B1800E0073393431A0008322A601A685B68A264E3640122E56CA66C6B005B080F935242C04B30000F9903F0D8FA002819D10122BC4B524230000F9902F095
:40368000A9F8002810D1002200233000290002F097F8002803D023002D2243331A70B34D472F0ED8B24D0CE032002B003000290003F0B6FA002800D19AE1AE4D472F00D877
:4036C000AD4D03230C9A236101339A432260002642E0672F00D193E1472F00D190E10C9A0021134312AA059211AA0392232223600691019308A96368521802920093320020
:403700002B0004970998FFF7ECFE20233A0005009A43472A00D18EE11199652F00D996E1200001393A0050301191FFF73FFF129A060083182361012A00DD85E12268D20718
:4037400000D581E1232308AA9B181B78002B03D023002D2243331A700B9B13AA009321000A9B099800F0A4F9431C02D1012040429BE12268530501D4236964E0652F00D836
:40378000CCE0A06CE16C0022002302F013F800282CD00123794A0A9909980B9DA847431CE4D0119B129A934208DB2368DB0705D4236800259B0700D50FE113E10B9D0E9B17
:4037C0000D9A0A990998A8470025431CCED0129B013B9D42ECDA220001231A320A9909980B9EB047431CC1D00135F0E7119B002B2BDC0123614A0A9909980B9EB047431CDC
:40380000B4D0119B002B05D1129B002B02D12368DB07CDD50B9E0E9B0D9A0A990998B0470026431CA2D0119B5B429E420ADA220001231A320A9909980B9FB847431C95D022
:403840000136F0E7129B2A00ACE0A36D129E9E4200DD1E00002E05DC00230C93F343DB170F9315E033002A000A9909980B9FB847431CF1D17AE7220001231A320A9909980A
:403880000B9FB847431C00D170E70C9B01330C930F9BA26D0C993340D31A9942EBDBAE18119B129A93420DDB2368DB070AD4129B119AED18AD1B9B1A9D4200DD1D00002DF9
:4038C00009DC11E00E9B0D9A0A9909980B9FB847431CECD14AE72B0032000A9909980B9EB047431C00D141E7EF43FB1700260C930AE0220001231A320A9909980B9FB8475D
:40390000431C00D132E70136119A129B0C999B1A2A000A409B1A9E42EBDB49E7129B012B02DC01231A4245D001232A000A9909980B9FB847431C00D118E70E9B0D9A0A99AD
:4039400009980B9FB847431C00D10FE7A06CE16C0022002301F02EFF002801D000251AE0129B6A1C013B26E0FFFFEF7F827000007E7000008A700000867000008E70000054
:40398000220001231A320A9909980B9FB847431C00D1EBE60135129B013B9D42F0DB2200330050320A9909980B9DA847431C00D0FEE6DBE62A000A9909980B9DA847431CD4
:4039C000EDD1D3E62200012319320A9909980B9EB047431C00D1C9E60135E368139A9B1A9D42EFDB139BE06898425EDA18005CE080236268DB00511C00D06AE6073202E024
:403A0000002A02D10122626069E60C9908A80B430021069112A9059111A90391232109182360019300922B000497029132000998FFF757FD0500119BDA1C02DB62689342B4
:403A40001CDD023FFFB267E6013323617AE6662F15D16368002909DD2161002B02D12268D2071ED50133591821611AE0002B03D101222168114213D09A1C11E06727119BE8
:403A8000129A934206DB22682361D20709D50133236106E00121002B01DC4918C91A8A182261119B0026A3654CE615B0F0BDC046F7B5170001938A680B6900900C009342FC
:403AC00000DA130022003B6043321278002A01D001333B6023689B0602D53B6802333B60062523681D401ED0230043331B785A1E9341226892061CD53020E118433108701C
:403B000021005A1C45310978A2184332023311700FE022000123193201990098089EB047431C0ED00135E3683A689B1A9D42F0DBDAE72200019943320098089DA847431C87
:403B400002D10120404220E006232068E1683A6803400025042B03D18D1AEB43DB171D40A3682269934201DD9B1AED180027BD420AD0220001231A3201990098089EB04740
:403B8000431CDED00137F2E70020FEBDF0B58BB006920A0043320793059004920A7E0C00109B6E2A00D1ABE011D8632A22D009D8002A00D1B5E0582A00D0C5E045310A705D
:403BC000814A4FE0642A1DD0692A1BD0BCE0732A00D1AAE009D86F2A29D0702A00D0B3E0202209680A43226037E0752A1FD0782A33D0A9E00E001A684236111D196013684F
:403C00003370A4E021681A68080606D4490604D5111D19600023D55E02E0111D19601568002D3BDA2D23049A6D42137036E021681A68080606D4490604D51568111D196088
:403C4000ADB202E0111D196015685F4B227E039308276F2A1DD00A271BE022007821453211705A4A19680392081D226818600D68100602D4500600D5ADB2D30702D52023AB
:403C80001A4322601027002D03D1202322689A4322602300002243331A7002E00A274A4B03936368A360002B09DB0422216891432160002D05D1049E002B11D07BE0002D24
:403CC00079D0049E28003900FEF734FB039B013E5B5C280033703900FEF7A6FA051EF1D1082F09D12368DB0706D563682269934202DC3023013E3370049B9B1B23612BE0C7
:403D000009681A68080607D4490605D5111D19601368A28A1A8004E0111D1960136862691A600023049E236116E01A68111D1960166800216268300000F0CEFE002801D095
:403D4000801B6060636803E0260042363270012323610023049A1370079B09AA00932100069B0598FFF7A4FE431C02D10120404227E02369320006990598079DA847431C67
:403D8000F4D0236800259B070FD4099BE068984217DA180015E022000123193206990598079EB047431CE1D00135E368099A9B1A9D42F0DBE9E72600039B42361B78337008
:403DC0008EE70BB0F0BDC04690700000A17000000EB410B59DB002A9029008610B48822488604861012040421FABC881084804CBA400006801938C8101F080FA0023029A1F
:403E000013701DB010BC08BC03B01847FFFFFF7F440100200023C25C0133002AFBD1581E7047F0B503690C6989B00700059100269C4279DC0B00013C1433A50003935B1924
:403E400004930300143302935D19049B28681B68591C0193FEF7E8F90190B04233D0039B02989C460696634604CB9C46019B91B25943120C5A4389190B0CD3180793069A1B
:403E80001E0C038889B29B1802685B1A110C6A46928B8A1A1914521811149BB21204134308C0049B06916345DDD22B68002B0AD1029B043DAB4201D33C6104E02B68002BB1
:403EC000FAD1013CF4E70599380001F021F8002829DB0020019B02990133039A019340CA0B881818B3B2C31A0868360C000C801B1D14451928149BB22D042B4308C1049B90
:403F00009342ECD2029AA300D3181A68002A0AD1029A043B9A4201D33C6104E01A68002AFAD1013CF4E7019E300009B0F0BD0000F0B516001F00446A9DB00490259D0696A6
:403F40000797002C08D1102000F0BCFD049B5862446084600460C460049B5B6A196800290BD05A68012393404A608B60049800F0F6FD0022049B5B6A1A60079B002B05DAFA
:403F800001232B607B005B08079301E000232B60079CC84B220019931A409A4219D1C64B249A1360069AC54B002A02D1240300D1C34B269A1800002A01D100F07DFDD97823
:403FC000DA1C002900D00532269918000A6000F073FD069E079F002200233000390001F0E9FB051E0ED00123249A1360B54B269A1800002A01D100F05FFDB34A26990A6091
:4040000000F05AFD1AAB01931BAB009332003B00049801F003F8630005905B0D09D03A03AA4C120B1443AA4A300021009E1817951AE01A9B1B9A9E18A64BF318202B08DDC5
:40404000A54A0698B218D0404022D31A9C40204303E020220698D31A984002F079FE01239E4C013E0919179300229D4B02F084FA9C4A9D4B02F006F89C4A9D4B01F0C8FB87
:40408000040030000D0002F021FE9A4A9A4B01F0F9FF02000B002000290001F0B9FB04000D0002F0DDFD0022039000232000290001F086FB00280DD0039802F007FE0200F8
:4040C0000B002000290001F075FB43424341039AD31A039301231693039B162B11D88749DB00C91808684968069A079B01F07CFB002805D0039B013B03930023169300E0DD
:4041000016901A9B9E1B00230B93013E0C9604D50C9B5B420B9300230C93039B002B08DB039A0C9B944663440C9300231192089307E00B9B039A9B1A0B935342089300230B
:404140001193229B0125092B25D8052B02DD0025043B2293229B981E032824D801F026FA060E0204012302E0012308E000231093239B002B20DD1F000A9321E00023239A3F
:404180001093039B9F187B1C0A930123FA18002A16DD130014E0012700237F42229310950A97123305E0012701237F4210930A9711330022239203E001273B000A9723973B
:4041C000049A546A00226260043211001431994204D86168520001316160F6E76168049800F085FC049B20605B6A1B680D930A9B0E2B00D981E1002D00D17EE1069B079CBA
:4042000014931594039B002B31DD0F223B491340DB00CB185C681B680E930F94039B02241D11EB060AD514981599354B15401A6A5B6AFEF705FD069007910134304E002DC7
:404240000ED001231D4208D00E980F99E4183268736801F017FF0E900F916D100836EEE70E9A0F9B06980799FEF7EAFC4CE0039B02245D42002D49D0149815990F231F4A3C
:404280002B40DB00D3181A685B6801F0FBFE0023069007911A4E2D11002D33D00122154205D0A4183268736801F0ECFE01236D100836F1E70000F07F0F270000BB70000095
:4042C000B27000008E7000008F7000000000F03F01FCFFFF3204000012040000000010FE0000F83F61436F63A787D23FB3C8608B288AC63FFB799F501344D33FC87000000E
:40430000A0710000002B01D006900791169B002B1DD0069D079E0022C74B2800310001F04FFA002813D00A9B002B10D0002F00DCDFE0039B3100013B0E930022BF4B2800E5
:4043400001F0A0FE0134069007913E0002E0039B0A9E0E93200002F0B9FC069A079B01F091FE0022B64B01F053FAB64A12901391129C139D9446139B634418931D00002E91
:404380001CD1069807990022AF4B02F0F5F82200189B0690079101F027FA002800D054E2AA481399844661440B0006980799220001F006FA002800D03DE29AE0109A731E5F
:4043C000A349DB00002A49D0CB181A685B680020A049FEF735FC2B00220002F0CDF8129013910D9D0698079902F03AFC040002F06DFC02000B000698079902F0BDF801357B
:404400006B1E30341C70129A139B0690079101F0D7F9002800D02EE3069A079B0020864902F0AAF8129A139B01F0CAF9002800D0C7E00D9BEB1AB3425BDA129813990022F0
:404440007E4B01F01FFE002212901391069807997A4B01F017FE06900791C3E7C9182200086849682B0001F00DFE0D9C12901391A5190698079902F0F3FB060002F026FCEC
:4044800002000B000698079902F076F8303626700134069007910022A54222D16D4B1298139901F0B5F902000B000698079901F09BF9002800D084E0129A139B00206549F5
:4044C00002F05AF802000B000698079901F078F900280ED06B1E1A78302A00D0CBE21D00F8E706980799554B01F0CCFD06900791BFE7149B159C069307941B9B002B00DA1C
:4045000081E0039A0E2A00DD7DE0D300504AD3185C681B6808930994239B002B15DA0A9B002B12DC00D088E1089809990022464B01F0A8FD069A079B01F060F90A9B08930E
:404540001E00002800D07BE182E10D9D069E079F089A099B30003900FEF772FB02F080FB040002F0B3FB089A099B01F08BFD02000B003000390001F0FFFF220001356B1E4B
:4045800030321A700D9B0A9AEB1A9A422ED102000B0001F03DF906000F0002000B000898099901F00DF900280FD10898099932003B0001F0FFF8002800D15EE2E30704D4BA
:4045C0005BE20E9B039300E01D006B1E1A78392A08D10D9A9A42F7D1039A0D990132039230220A701A7801321A7046E20022134B01F048FD0022002306000F0001F0DAF87F
:404600000028A5D039E2109A002A44D0229A012A0BDC179A002A02D00F4A9B1802E036231A9A9B1A089D0B9C29E00A9B5D1E089BAB4213DB5D1B18E00000F03F00002440B9
:4046400000001C400000C0FC000014400000C07CC87000000000E03F33040000089B0895EA1A0025119B9B1811930A9B002B04DA0B9B0A9A9C1A002301E00B9C0A9B0B9AF5
:404680000121D2180B920C9A0498D3180C9300F006FB060002E0089D0B9C109E002C0ED00C9B002B0BDD0C9A2300944200DD13000B9AE41AD21A0B920C9AD31A0C93089B5E
:4046C000002B20DD109B002B17D0002D11D031002A00049800F076FB059A01000600049800F0E6FA05990E90049800F038FA0E9B0593089B5A1B06D000E0089A0599049878
:4047000000F060FB05900121049800F0C8FA119B0890002B00D1C0E11A000100049800F051FB229B0890012B17DC0025069BAB420ED1079B1B03AB420AD1199B079A13421D
:4047400006D00B9B013501330B930C9B01330C93119B0120002B0DD000E00025089B089A1B690E9303339B00D318586800F04DFA2023181A0C9BC0181F23184009D00133A9
:404780001B1A042B02DD1C23181A03E0042B08D018001C300B9B24181B180B930C9B1B180C930B9B002B05DD1A000599049800F05DFB05900C9B002B05DD1A0008990498DC
:4047C00000F054FB0890169B002B1DD00899059800F09EFB002817DA039B0A22013B039305990023049800F0D3F9109B0590002B00D159E1310000230A22049800F0C8F941
:404800000600002F37DC33E00A9B0A9F002B2ADC229B022B27DD002F12D108993B000522049800F0B5F908900100059800F070FB00280DDC04E0089602E000231E0008937F
:40484000239B0D9DDB4303930AE00E9B089603930D9B0D9A5D1C31231370039B013303930A960026F3E0109B002B04D10D9DB5E0229B022BCFDC002C05DD31002200049839
:4048800000F0F4FA06000A96002D12D07168049800F02DF93100040033690C319A1C92000C30FEF70DFE01222100049800F0DEFA0A900D9B7D1E0B935B190E9308990598D2
:4048C000FFF7AFFA310010900400059800F020FB0A9A05000899049800F035FB01230C93C36830340700002B04D10100059800F00FFB0C903900049800F031F90C9B229AB7
:40490000134308D1069A0133134204D1392C2AD0002D1CDC1DE0002D06DB229B1D431BD10123069A134217D10C9B002B11DD05990122049800F09AFA0899059000F0E8FA08
:40494000002802DC05D1E30703D5392C0BD0109C31340B9B5D1C0FE00B9B5F1C0C9B002B0CDD392C05D10B9B0B9A5D1C3923137057E03D000B9B01341C7068E00B9B0E9A0F
:404980003D001C7093423CD000230A220599049800F0FEF80A9B05909E4208D1310000230A22049800F0F4F806000A900DE0310000230A22049800F0EBF8002306000A2222
:4049C0000A99049800F0E4F80A900B9776E700230A220599049800F0DBF8059008990598FFF71FFA0D9B3030287001350400EB1ABB42ECDB3D1E00DC01250A9600260D9B77
:404A00005D1905990122049800F030FA0899059000F07EFA002804DC13D1E30701D410E01D006B1E1A78392A08D10D9A9A42F7D1039B013303933123137008E001321A70AD
:404A400005E06B1E1A78302A01D11D00F9E70899049800F084F80A9B002B0ED0002E05D09E4203D03100049800F079F80A99049800F075F801E00E9B03930498059900F0EC
:404A80006EF800232B70039B249A01331360269B0D98002B10D01D600EE0229B012B00DC43E6119D012065E6002F00DDDEE6229B022B00DCDAE6AEE61DB0F0BD0048704788
:404AC0004801002010B5034B0100186800F054FB10BDC04644010020C9B28218904204D003788B4202D00130F8E70020704770B5466A04000D00002E07D11020FFF7E2FF93
:404B00006062466086600660C660666AF368002B09D0636AAA00DB689B18186800280ED002681A6017E021220421200000F0CAFA636AF060DB68002BEBD100200EE00121EB
:404B40000E00AE40721D9200200000F0BBFA0028F3D04560866000230361C36070BD70B5456A06000C00002D07D11020FFF7AAFF7062456085600560C560002C07D0726A87
:404B80006368D2689B00D3181A6822601C6070BDF7B5070008000C000D691E00002101921430019A0388013153439B190668360C56431A0C9446B4446246160C12049446CD
:404BC0009BB2634408C08D42EBDC002E1BD0A3689D4212DB63683800591CFFF788FF2100236901909A1C92000C310C30FEF768FC21003800FFF7B3FF019C2B1D9B00E318AA
:404C000001355E6025612000FEBD00220300010C914201D103041032190E01D108321B02190F01D104321B01990F01D102329B001000002B03DB20205B0000D5501C70476E
:404C40000722036810B501001A400CD001240020234223D10222134203D0E34020000B601CE09B0818E098B2002801D110221B0CD8B2002801D108321B0A180701D10432CE
:404C80001B09980701D102329B08D80704D45B082020002B02D0013210000B6010BD10B50C000121FFF723FF01234461036110BDF0B50B691400126989B00D00934201DA13
:404CC00025000C002F692669AA68BB1969680193934200DD0131FFF70AFF0200BB1914329B00D3189C46002113000290634501D202C3FBE71435BF00EB191434B600059320
:404D0000A31903950793079B9C4251D2208800281ED015000026039F08CF069504936B461B8A434319002B88CB1804999B19090C41432E68360C89191E0C89190E0C9BB21C
:404D400009040B4308C5059BBB42E5D8069B5E6023681D0C1FD0002110001368039F04913E8801686E43090C7118049E9BB289190E043343036008CF86881B0C6B43090C03
:404D80009B195B18190C0491059906900430B942E6D806994B6004340432B4E704235B429C4463461B68002B05D1019B013B0193019B002BF2DC029B019A18001A6109B048
:404DC000F0BD00000323F7B5134005000E001400002B08D02349013B9A00525800233100FFF7D6FE0600A310019338D06C6A002C07D11020FFF766FE68624460846004603E
:404E0000C4606F6ABC68002C10D117492800FFF746FF0023B8600400036007E0019B5B1001931CD02068002810D004000122019B1342F3D0310022002800FFF739FF070056
:404E400031002800FFF78BFE3E00E7E7220021002800FFF72DFF002320600360E5E73000FEBDC0469071000071020000F0B50C0017002369551185B0EB180193013300933D
:404E80004968A3680290009A934202DA01315B00F9E70298FFF72BFE00230200060019001432AB4203DA980011500133F9E7EB43DB171D402300AD005519226914339200B3
:404EC0009A1894461F22174014D00132D21B0392002219682800B9400A4304C504CB0399CA409C45F5D84260002A07D0019B0233009303E004CB04C59C45FBD8009B02988D
:404F0000013B33612100FFF72AFE300005B0F0BD03690A6910B59B1A0400181E12D1930014341431E218C918043A043913680868834204D083429B410120184302E094428B
:404F4000F2D3002010BDF0B50C0085B00700110020001500FFF7DCFF061E07D101003800FFF7C5FD01234661036155E000230193984204DA23002C001D00012301936168CE
:404F80003800FFF7B4FD019B26692F00C3601434B300E318020002932B69002514379B00FB180393143208CC69469C4608CF0432009363468B808B885D19009B9BB2EB1A4B
:404FC00065460193009B2D0C190C019B691A1D14131F9C466B4649199B880D1409040B4361460B60039BBB42DDD8029913008C420BD202CC8BB25B191D14090C49190D1460
:405000009BB209040B4308C2EFE7043B1A68002A01D1013EF9E7066105B0F0BDF7B51D000121089F1400FFF762FD2B036D0006001B0B6D0D02D08022520313430193002C68
:4050400018D068460094FFF7FBFD009C002809D0019B20211A00091A8A40C34022437261019300E07461019CB461631E9C410134346107E001A8FFF7E3FD0124019B34617D
:4050800073612030002D06D00B4BED1835232D183D60181A0BE0094BC018094B3860E3189B00F3185869FFF7B0FD6401201A099B18603000FEBDC046CDFBFFFFCEFBFFFFC1
:4050C000FFFFFF3F4A4370B51100140000F054F8051E03D022000021FEF7FBF9280070BD70B50500002944D00C1F2368002B00DAE418280000F027FA1E4A13681100002B74
:4051000002D16360146031E0A3420DD92268A018834203D118685B688218226063600C6024E0A24203D813005A68002AF9D11E689819A0420BD121687118581819608242E0
:4051400014D110685268411819605A600EE0A04202D90C232B6009E021686018824203D1106852684118216062605C60280000F0EBF970BDAC010020032370B5CD1C9D4311
:40518000083506000C2D01D20C2501E0002D01DBA94202D90C23336048E0300000F0D3F9234B1C681A002100002913D00B685B1B0DD40B2B02D90B60CC181EE08C4202D1E7
:4051C000636813601AE04B6863600C0016E00C004968E9E7174C2368002B03D1300000F08BF920602900300000F086F9431C18D00323C41C9C43A0420DD12560300000F008
:40520000A3F9200007220B30231D9043C31A0ED05A42E2500BE0211A300000F06DF9431CEBD10C233000336000F08EF9002070BDAC010020A8010020F0B58E6885B00700C8
:405240000C00039201939E4243D890238A89DB001A423ED003250969236801985B1A029363695D43EB0F5D19029B6D1001331B18AB4200D91D00530510D529003800FFF757
:405280007BFF061E14D0029A2169FEF719F9A289194B134080221343A38112E02A00380000F053F9061E0CD121693800FFF718FF0C23402201203B60A38940421343A3816C
:4052C00017E0029B2661F61826606561019EED1AA560019BB34200D21E0032000399206800F01CF90020A3689B1BA36023689E19266005B0F0BDC0467FFBFFFFF0B59FB032
:40530000029005938B890F0016001B0610D50B69002B0DD14021FFF72FFF38603861002804D10C23029A01381360D8E040237B61002306AD6B6120336B761033AB763400F8
:405340002378002B03D1A31B049312D003E0252BF9D00134F4E7A31B320039000298FFF76BFF431C00D1B4E06A69049B944663446B612378002B00D1ABE0012200235242AE
:405380006A6002A95432521801342B60EB60AB601370AB65534E217805223000FFF79CFB002807D00123801B83402A68013413432B60EFE72B68DA0604D55322202102A816
:4053C000121811701A0704D553222B2102A81218117022782A2A03D0099B00200A210EE0059A111D12680591002A01DB099204E05242EA60022213432B6001340BE0227855
:40540000303A092A04D84B4301349B180120F6E7002800D0099323782E2B1ED163782A2B0AD1059B02341A1D1B680592002B01DA01235B42079310E000230A201A000134E9
:405440006B6021783039092904D84243013452180123F6E7002B00D00792234E217803223000FFF739FB002806D04023801B83402A68013413432B60217806221B48661C02
:405480002976FFF729FB002812D0194B002B06D10722059B073393430833059314E005AB00933A00134B29000298FEF7B1F807E005AB00933A000F4B29000298FEF766FB10
:4054C0000390039B013304D06B69039A9B186B6135E7BB890B985B0601D5012040421FB0F0BDC046C8710000CE710000D27100001136000039520000002370B5064C0500F8
:4055000008002360FBF7DAFC431C03D12368002B00D02B6070BDC046EC01002010B5884202D98B18984201D3002305E09B1A013A08D3995C8154FAE7934203D0CC5CC45473
:405540000133F9E710BD70477047F8B506000C001500002904D11100FFF70EFE040018E0002A03D1FFF7BCFD2C0012E000F013F885420ED929003000FFF7FEFD071E07D041
:4055800021002A00FDF79CFF21003000FFF7A8FD3C002000F8BD0B1F1A68101F002A04DA891804390B68D0180438704702B4714649084900095C49008E4402BC7047C04603
:4055C00003460B437FD4002243088B4274D303098B425FD3030A8B4244D3030B8B4228D3030C8B420DD3FF22090212BA030C8B4202D31212090265D0030B8B4219D300E0FE
:40560000090AC30B8B4201D3CB03C01A5241830B8B4201D38B03C01A5241430B8B4201D34B03C01A5241030B8B4201D30B03C01A5241C30A8B4201D3CB02C01A5241830A7A
:405640008B4201D38B02C01A5241430A8B4201D34B02C01A5241030A8B4201D30B02C01A5241CDD2C3098B4201D3CB01C01A524183098B4201D38B01C01A524143098B423B
:4056800001D34B01C01A524103098B4201D30B01C01A5241C3088B4201D3CB00C01A524183088B4201D38B00C01A524143088B4201D34B00C01A5241411A00D201465241C4
:4056C000104670475DE0CA0F00D04942031000D34042534000229C4603098B422DD3030A8B4212D3FC22890112BA030A8B420CD3890192118B4208D3890192118B4204D3C2
:4057000089013AD0921100E08909C3098B4201D3CB01C01A524183098B4201D38B01C01A524143098B4201D34B01C01A524103098B4201D30B01C01A5241C3088B4201D3BC
:40574000CB00C01A524183088B4201D38B00C01A5241D9D243088B4201D34B00C01A5241411A00D20146634652415B10104601D34042002B00D54942704763465B1000D38E
:40578000404201B50020FCF7D9FD02BD0029F8D016E770478446101C62468C46191C634600E0C0461FB500F003FC002801D40021C8421FBD10B500F057FB4042013010BDE2
:4057C00010B500F0F5FB002801DB002010BD012010BDC04610B500F0EBFB002801DD002010BD012010BDC04610B500F07DFB002801DC002010BD012010BDC04610B500F0D5
:4058000073FB002801DA002010BD012010BDC046F8B556465F464D464446F0B40F00FD0FAA4609037C002E005F00450F490A7F0D2943C5001803BC46400A570F640DDB0FBB
:405840003843D2009A4500D1AAE06646A61B002E00DCFFE06346002B39D10300134300D0D9E06B0709D00F232B40042B05D02B1DAB42AD416D4249191D000B0200D482E00B
:40588000CA4B01349C4200D1FEE00A005646C84BED081A405007640552020543120B640D002112030B0D1B056405120B1A436308C04CF60714401C43640064083443280038
:4058C00021003CBC90469946A246AB46F8BDB74B9C42C6D080231B041843382E00DDEBE01F2E00DD1EE120239B1B9C4603006746BB40984613004746F3403B436746BA4026
:40590000571EBA4113430200F240EB1A9D42B6411D008A1A7642911B0B0231D54A02560A002E00D1B4E03000FDF780FD0300083B1F2B00DDB5E020222900D21AD1409E4032
:405940000A009D4032439C4200DDB1E01C1B631C1F2B00DDD5E0202114002800C91A8C40D8408D400443DA40681E854111002543002476E74146314300D134E23100454697
:405980006B0700D06FE756464807ED08C9080543864B9C4235D00A036405120B640D7FE76346E31A9B46002B00DC8BE06746002F3CD07E4FBC4200D153E780273F0438431C
:4059C0005B46382B00DCF7E00243501E82410020D2B253194218AB4289411D00494289180B02CDD5714B01349C4200D13DE101206F4A6B080A4028401843D50705435108CC
:405A00002FE72B000B4300D1CBE180231B030B431A03120B44E7013E002E6DD1AE1AB5429B41091A5B42C91A350075E70700174300D116E701235B429C46E3445B46002BA7
:405A400000D0E0E0AA18AA429B4109185B4259181500C5E7002E75D1661C7605760D012E00DCF3E0AE1AB0464545BF410E1A7F42F61B370200D48FE0551BAA42B641411ADE
:405A800076428E1B9A464BE756460022002507E72800FDF7CBFC20300300083B1F2B00DC49E72A002838824000259C4200DC4DE73F49E41A1140D4E60243501E8241D3B2E8
:405AC000002222E7002B00D0F3E0631C9C465B055B0D012B00DC9FE0344B9C4500D1C3E0AA180918AA42804140424118CD075208154349086446B4E62C4B9C4200D0ECE6AC
:405B0000AFE611001F3CE1400C00202B00D17FE04021CB1A9A4015436A1E95410021254300242DE733000700203BDF403B00202E70D04027BE1BB0400243501E82411343AC
:405B40000022E2E6002C4FD0184CA44500D1ABE08024240476422143382E00DDDFE01F2E00DD43E12027BC1BA1460C004F46BC40A0462C004746F4403C434F46BD406F1EFC
:405B8000BD41F1402C43151BAA429241411A5242891A64469A46BFE641464546314300D0BEE6002600240025F2E6C046FF070000FFFF7FFFFFFF0F801F2B59DC2027FF1A62
:405BC000BC46070063469F405B46B9461700DF40B8464F4643461F4363469A40531E9A415B463A43D840F4E60C002C435CD0F643002E55D1551BAA42A441411A6442091B47
:405C00009A46644688E6964FBC4200D0D8E628E6002280E700208FE70B002B43002C00D0C2E0002B00D101E10300134300D118E6AB18AB42B6410918764271180A0200D4C8
:405C400009E1884A1D00114064460AE6002C5BD10E002E4300D08AE00100114300D1C2E0010015009A46FCE56446002100258FE620235B429C46DC4463460700DF405B46F9
:405C8000BC46202B00D1ACE040235F46DB1B98400243501E8241634613431A00002098E66F4CA44500D057E70100150064469A46D7E5002C39D10C002C436ED0DB43002BF1
:405CC0001AD0674CA44568D0382B00DDA4E01F2B00DDAEE020240F00E41AA740B9462F00DF40B846A3464F46444627435C46A5406C1EA541D9403D43AD1895429B4109184F
:405D00005B42591864466BE60C002C4315D1010011437BD0010015009A46514CA1E50D43691E8D410021ECB22DE74D4CA44534D0802424045B422143C6E7040014434ED04F
:405D4000ED084C072C438025C9082D03294208D0C6082E4205D1D208410711430C009A463100620FC900E50011433D4C79E50600164300D175E5AE1AB0464545BF410E1A88
:405D80007F42F61B370200D4F4E5551BAA42B641411A7642891B9A4663E50100150064465FE5002200257BE5002B3BD00300134315D0ED084B072B438025C9082D03294214
:405DC00007D0C4082C4204D141070B002100D2081343C9005A0F1143DD00214C41E5204C3FE5002054E700260025D1E534000F00203CE7403C00202E2BD04027BE1BB140BB
:405E00000D43691E8D4100212C43BCE6802100260903134C0025BBE50D43691E8D410021EDB269E7010015000D4C1AE50100150017E51C000F00203CE7403C00202B0CD04E
:405E40004027FB1A99400D43691E8D410021254352E70021D4E71D0092E50021F3E7C046FF070000FFFF7FFFF0B55F4656464D464446F0B41F035C00DB0F9A46194B0E030F
:405E80004D00C90F8046360B6D0D8B4691463F0B640D9D4219D0134B9C421BD00123A54206D018003CBC90469946A246AB46F0BDBE42F6D1C845F4D1D34510D0002DF0D13F
:405EC000304303005A1E9341EBE7310001230143E7D1E0E73A430123002AE2D1DEE70023DFE7C046FF070000F0B55F46444656464D46F0B41F033C0B2C4F0E034D00A346EC
:405F00005C008446360B6D0DC90F9046640DDB0FBD422BD0254FBC422ED0002D0ED130430700814678427841002C17D15F463A4314D14B460020002B0AD006E0002C02D197
:405F40005846024301D099421AD00123484218433CBC90469946A246AB46F0BD0028F2D058425841012240421043F1E737000743D0D002204042EBE75F461743CDD0F8E76D
:405F8000A542E2DC05DB5E45DFD808D000205E45DED248424841012340421843D8E7C445D3D80020C445F4D3D2E7C046FF070000F0B55F464D4644465646F0B41C03240B86
:405FC000A4462F4C0F034D005E00C90F80463F0B6D0D8B469146760DDB0FA54220D0284CA64222D0002D12D1384344424441002E20D0002C0DD05C42634101245B421C43C3
:4060000020003CBC90469946A246AB46F0BD002E17D05B4519D05B465C4201231C43EFE7390002240143EBD1D9E7614602241143E6D1D7E761460A43DBD100240028DFD087
:40604000E9E761460A43E4D1E5E7B54203DD01225C421443D4E7B542CDDB6745DBD809D000246745CCD259464C426141012449420C43C5E7C845CED80024C845F3D3BFE722
:40608000FF070000F0B55F4656464D464446F0B40D0399464E002B0B87B00700924680469B46760DCC0F002E69D06D4B9E4235D05B468022DD001204430F13432B439B4674
:4060C000C3009846674B00279C460023664401934A4615035000D20F53462D0B400D914600D176E05E4A90426CD080225B0F120413435C4AED0094461D4353460022DB005D
:40610000604449463618701C6140029017430F2F00D9AFE05448BF00C759BF465B461F4300D088E000239B469846023308270193CEE74946022A6AD0032A00D109E2012ACC
:4061400000D0BBE111400022002300259046CCB200212D030A0D12052D0B1543434A1B0515401D436D00E4076D0825434046290007B03CBC90469946A246AB46F0BD03431F
:4061800052D05B46002B00D18AE15846FDF74EF903000B3B1C2B00DD7BE11D22D31A3A0001005D46DA4008398D4013008F402B439B46B8462E4B00279C46002360444642E1
:4061C000019385E752462A432CD100250023022297E752462A4321D0002D00D154E12800FDF724F903000B3B1C2B00DD46E11D21CB1A51460200D9405346083A9540934065
:406200000D431B4A944660444042002279E7012400220C40124B0025904699E70025002301226EE703226CE700239B4698460133042701934CE703230C27019348E700233D
:406240008025984600242D03054B81E75D464346019A6FE75D4643462100019A6AE7C046FF07000001FCFFFFDC710000FFFF0F80F30300004246120C91461A0C944642465D
:4062800017044A461B041B0C5A43604690464A4642431000039262461C003F0C7A437C4342440192220C9246019A5244904506D98246802040028046C24450460390100CD0
:4062C000049048462404240C1204121905922A0C2D042D0C68432C00824648467C4350438146200C8046574357444744BA4503D9802040028046C144380C3F04B84648441B
:406300002404240C01900498A044404404905846000C814658460404200C8246070048465F434C464343604660436446834650464443380C8446E4186444A34203D9802393
:406340005B029C46E34448463F04230C3F0C2404E419574668436F4384464D46504655434243380C814662444A445B44944503D9802040028446654403983F048346049812
:406380003F0C8446E344C345804140428246100484460198674484466744A344BC46A345A4419946D44464428742BF41D4458041E144A04699459B417F424042C8440743A3
:4063C000120CBA18A045A4415F423B0064422343D71843467D19DB0D6D021D435B465A02059B1A43531E9A415B46DB0D1A4343465B021343EA0107D501225C0813402343C7
:40640000EA07029E13436D08574AB218002A4BDD580709D00F201840042805D0181D98429B415B42ED180300E80104D54F4A15408022D200B2184E48824200DDE7E60124DC
:40644000DB08680718436D02530580462D0B5B0D0C407DE6802259461203114208D0154206D115432D0398462D0B4C46414B6FE65D4615432D032D0B3E4B69E603005546FA
:40648000283B9D400023BCE65046FCF7CFFF2030A8E60300283B9F400023BB46984689E6FCF7C4FF203073E60124A61A382E07DD00220C4000230025904649E6029EA3E779
:4064C0001F2E20DC20222C001800921BF040944093400443581E83411C43F540630709D00F232340042B05D023001C1D9C4292415242AD182B021FD5012400220C4001231A
:406500000025904624E61F202C004042821AD440202E1CD04022961BB5402B43581E83410720234318400025002809D00F2200251A401C00042AD8D1230068076D022D0BE8
:406540000124DB08034398460C40002300E60025E3E780220124120315432D0398462D0B0C40044BF4E5C046FF030000FFFFFFFEFE070000FF070000F0B557464E4645464E
:40658000E0B40E001100F20F9246C500420F180337037400400A4E0F7F0A3043CF4E17435A00640D520DDB0FC900B24200D1E5E001267340A61AB446534500D1AFE0002E35
:4065C00000DC0DE1002A3AD103000B4300D0E4E06B0709D00F232B40042B05D02B1DAB42AD416D427F191D003B0200D488E0BB4B01349C4200D110E13A00B94B51461A40C1
:4066000001235007ED08520264050543120B640D0B400021280012030D0D120B64052D0515436208AF4CDB072C401443640064081C4321001CBC90469946A246F0BDA74B16
:406640009C42C5D080231B0418436346382B00DDFDE01F2B00DD30E1624620239B1A02009A40664690460A009940F24046464B1E99413243114363460200DA40691A8D42CA
:406680009B410D00BA1A5B42D71A3B0235D57A02530A98464346002B00D1C4E04046FCF7C5FE0300083B1F2B00DDC5E020222900D21A4746D1409F400A009D403A439C4204
:4066C00000DDC0E01C1B631C1F2B00DDE4E0202114002800C91AD8408C408D400443DA40681E854117002543002471E7424663461A4300D14CE2674645466B0700D069E76C
:40670000012351467807ED08FA080B40054373498C4238D012036405120B640D79E7002E00DC9AE0002A47D06C4A944200D14FE78022120410436246382A00DC08E1014321
:40674000481E81410022C9B24919D219A942BF410D007F42BF183A0200D442E15F4A0134944200D14EE101205D4A69083A4028400843D507054357089A4629E706000E4360
:4067800000D017E714E72900114300D1F9E1802109030A431203120B3BE701235B429846C4446346002B72D1691A8D429B413F1A5B42FF1A0D0068E702000A4300D107E735
:4067C000012252429046C4446246002A00D0E6E06918A942B6413F187642F7190D00BAE7002E00D080E0621C5205520D012A00DCF9E06A1A91464D45B6413A1A7642921B5D
:406800009046120200D499E04D1BA9428941C71B49427A1A90469A463CE752460123002513400022F5E62800FCF700FE20300300083B1F2B00DC39E72A0028388240002593
:406840009C4200DC3EE7264FE41A1740C0E60143481E81410022C9B210E7002E00D0F1E0621C94465205520D012A00DCA0E01B4A944500D1C5E06918A94292413F18524287
:40688000D2194908D5070D4357086446A0E6134B9C4200D0D9E69BE611001F3CE1400C00202B00D180E04021CB1A9A4015436A1E95410027254300241FE763460200203BEB
:4068C000DA406346202B71D0402366469B1B98400143481E814111430022CFE6FF070000FFFF7FFFFFFF0F80002C48D0CA4CA24200D1A2E07442A1468024240427434C4610
:40690000382C00DDDBE01F2C00DD44E14E462024A41B3E00A640A246B0464C462E00E640B4464646644626435446A5406C1EA54134002C434D46EF400D1B28E04A46434659
:406940004D461A4300D0A5E6002300240025DEE61F2A5ADC66462022921B060096409146B04662460E00D640424616434A4691404A1E9141020060463143C240E4E63C006D
:406980002C435AD0F443A146002C52D14D1BA9428941C71B49427F1A14009A4675E69E4A944200D0C7E613E600227FE700208FE7002C00D0C8E03B002B4300D10FE10300FC
:4069C0000B4300D104E66918A9429B413F185B42DF193B0200D41AE1904B0D001F406446F6E59A4689E63A002A43002C5CD1002A75D102000A4300D1CAE007000D009A4605
:406A0000E6E564460022002581E662460600203AD6406246B046202A00D1B7E040226646921B904001434246481E8141114300228AE6794CA24200D061E707000D00140077
:406A40009A46C5E5002C41D13C002C4378D0F443A146002C20D0704CA24271D04C46382C00DDB2E01F2C00DDBCE02026341BA2463C005646B4404E46A0462C00F440A4460A
:406A8000444666463443A4465446A54064466E1EB54125434C46E7406D188D4289413F184942CF19140056E6002A2FD102000A4300D184E007000D009A46574C88E53D4309
:406AC0006F1EBD41ECB200270D1B60E7524CA24236D0744280263604A1463743BEE702000A4300D174E56A1A90464545B6413A1A7642921B9446120200D4F7E54D1BA942B5
:406B00008941C71B49427F1A9A4661E502000A433AD0ED087C072C438025FA082D032A4208D0C7082F4205D145072C003A009A46C9080C43670FD200E5001743364C47E507
:406B400007000D00140043E53A002A4343D002000A4319D0ED087C072C438025FA082D032A4207D0C6082E4204D147073C003200C9080C43D700620FE50017439A46264C0A
:406B800026E50022002544E5234C21E5002049E700230025BBE54C463E00203CE6404C46B446202C31D040244E46A61BB7403D436C1EA54164462C4300270D1BE7E680220B
:406BC00000231203144C0025A1E53D436F1EBD410027EDB260E707000D000F4CF8E407000D00F5E44E463C00203EF440A0464C46202C0ED040244E46A41BA7403D436F1E53
:406C0000BD4144460027254346E70027CFE70D0073E50027F2E7C046FF070000FFFF7FFF70B50E4E0C031D0349005B00240B490D2D0B5B0DB14204D0084900208B4208D0F0
:406C400070BD04430120002CFAD1044900208B42F6D115432800451EA841F1E7FF0700000B0330B5134D1A0B4B005B0DC90F0024AB4211DD104CA34210DC8024640322433E
:406C80000E4CE41A1F2C0CDD0D48C31ADA4013005C42002900D11C00200030BD094BCC18FAE7E040084CA44663449A4013000343EEE7C046FE0300001D04000033040000A3
:406CC00013040000FFFFFF7FEDFBFFFF70B5002830D0C317C4185C40C50F2000FCF7A6FB174B184A1B1AD21A1F2A18DD164AD21A9440002224035B05240B5B0D0021100040
:406D000024030A0D1205240B1443104A1B0514401C436400ED0764082C43210070BD210091400A000B21081AC4405B052403240B5B0DE3E70025002300240022DEE7C0463B
:406D40001E0400003304000013040000FFFF0F8070B5051E28D0FCF769FB154B154A1B1AD21A1F2A16DD2C00134A0025D21A94405A052403240B520D002124030B0D240B52
:406D80001B0523430D4C1205234013435B002800590870BD0B212C00081AC440954024035A05240B520DE7E700220024E4E7C0461E0400003304000013040000FFFF0F80CA
:406DC0000000000000000000554152542053544152544544200A200D000000004D50552041445245535320534554200A200D00004D505520494E495449414C495A4544202A
:406E00000A200D0054455354494E4720434F4E4E454354494F4E2E2E2E2E200A200D00004D50553630353020636F6E6E656374696F6E207375636365737366756C0A0D005A
:406E40004D50553630353020636F6E6E656374696F6E206661696C65640A0A0D000000005261772076616C7565732066726F6D206779726F73636F70652E2E0A0D00000043
:406E8000416363656C65726174696F6E20583A256420593A2564205A3A25642009204779726F3A20583A256420593A2564205A3A25642009000000000A0D00000A0A54656F
:406EC00073742066696E69736865642C206F66667365742076616C756573206172652073686F776E2062656C6F770A0A0D000000416363656C65726174696F6E204F4646F8
:406F000053455420583A256420593A2564205A3A25642009204779726F3A20583A256420593A2564205A3A25642009000D0A0A436F6E76657274696E672056616C756573E0
:406F400020746F204727730A0A0D000041583A256620092041593A2566200920415A3A256620092047583A256620092047593A2566200920475A3A25662009200A200D00B3
:406F800000300F40000400400F400004030405060708090A0B0C0E0F101112131415161718191B1C1D1E1F2021222325262728292A2B2E2F30313233343500007E27000026
:406FC000A22600006027000038270000602700002C2700006027000038270000A2260000A22600002C27000038270000E4270000E4270000E427000066270000A22600006B
:40700000A22600004C270000362700004C2700002C2700004C27000036270000A2260000A22600002C27000036270000E4270000E4270000E4270000F0270000302E00004C
:40704000FE2C0000042E0000F42C0000042E00000E2E0000042E0000F42C0000FE2C0000FE2C00000E2E0000F42C0000EA2C0000EA2C0000EA2C0000603000004300494E78
:407080004600696E66004E414E006E616E00300030313233343536373839414243444546003031323334353637383961626364656600496E66696E697479004E614E005068
:4070C0004F534958002E0000000000000000F03F000000000000244000000000000059400000000000408F40000000000088C34000000000006AF8400000000080842E4144
:4071000000000000D01263410000000084D797410000000065CDCD41000000205FA00242000000E876483742000000A2941A6D42000040E59C30A2420000901EC4BCD642BA
:4071400000003426F56B0C430080E03779C3414300A0D8855734764300C84E676DC1AB43003D9160E458E143408CB5781DAF154450EFE2D6E41A4B4492D54D06CFF0804468
:40718000F64AE1C7022DB544B49DD9794378EA4405000000190000007D000000000000000080E03779C34143176E05B5B5B89346F5F93FE9034F384D321D30F94877825ABC
:4071C0003CBF737FDD4F1575232D302B2000686C4C0065666745464700000000746200003461000034610000326100004C6200004C6200003E620000326100004C6200002D
:407200003E6200004C6200003261000054620000546200005462000054640000F8B5C046F8BC08BC9E467047CD010000A90F0000F8B5C046F8BC08BC9E467047A5010000DB
